:100000000C945E000C9486000C9486000C94860080
:100010000C9486000C9486000C9486000C94860048
:100020000C9486000C9486000C9486000C94860038
:100030000C9486000C9486000C9486000C94860028
:100040000C94A3030C9486000C9471030C944B0342
:100050000C9486000C9486000C9486000C94860008
:100060000C94ED030C9486000000000800020100CF
:100070000003040700000000000000000000000072
:10008000250028002B0000000000240027002A0083
:10009000040404040404040402020202020203032E
:1000A0000303030301020408102040800102040836
:1000B00010200102040810200805FD0611241FBEAF
:1000C000CFEFD8E0DEBFCDBF22E0A4E6B1E001C0B3
:1000D0001D92A538B207E1F711E0A0E0B1E0E6E932
:1000E000F2E102C005900D92A436B107D9F710E0F5
:1000F000CDE5D0E004C02197FE010E943D07CC353C
:10010000D107C9F70E947E050C943E090C940000AB
:1001100090E0FC01EC55FF4F249180579F4FFC016C
:100120008491882399F090E0880F991FFC01EA5789
:10013000FF4FA591B491FC01E458FF4F8591949134
:100140008FB7F894EC91E22BEC938FBF089508954C
:10015000AF92BF92CF92DF92EF92FF920F931F93D5
:10016000CF93DF936C017B018B01040F151FEB0113
:100170005E01AE18BF08C017D10759F06991D601CA
:10018000ED91FC910190F081E02DC6010995892B3C
:1001900079F7C501DF91CF911F910F91FF90EF90FB
:1001A000DF90CF90BF90AF900895FC01538D448DA8
:1001B000252F30E0842F90E0821B930B541710F012
:1001C000CF96089501970895FC01918D828D98171F
:1001D00061F0A28DAE0FBF2FB11D5D968C91928DF7
:1001E0009F5F9F73928F90E008958FEF9FEF089528
:1001F0002FB7F8948091DA019091DB01A091DC0196
:10020000B091DD012FBF8093E6019093E701A093A9
:10021000E801B093E9018EED91E00E94E40097FFC0
:1002200026C02FB7F8948091DA019091DB01A0915C
:10023000DC01B091DD012FBF4091E6015091E70153
:100240006091E8017091E901841B950BA60BB70B37
:100250004091E2015091E3016091E4017091E50168
:1002600084179507A607B707B0F28FEF9FEF0895A1
:10027000FC01918D828D981731F0828DE80FF11D70
:10028000858D90E008958FEF9FEF0895FC01918D8B
:10029000228D892F90E0805C9F4F821B91098F7384
:1002A000992708958EED91E00E94460121E0892B67
:1002B00009F420E0822F089580E090E0892B29F056
:1002C0000E94520181110C9400000895FC01A48D3C
:1002D000A80FB92FB11DA35ABF4F2C91848D90E068
:1002E00001968F739927848FA689B7892C93A0894B
:1002F000B1898C91837080648C93938D848D9813D5
:1003000006C00288F389E02D80818F7D8083089567
:10031000EF92FF920F931F93CF93DF93EC0181E055
:10032000888F9B8D8C8D98131AC0E889F9898081FC
:1003300085FF15C09FB7F894EE89FF896083E8892F
:10034000F98980818370806480839FBF81E090E021
:10035000DF91CF911F910F91FF90EF900895F62EAE
:100360000B8D10E00F5F1F4F0F731127E02E8C8D48
:100370008E110CC00FB607FCFACFE889F98980818D
:1003800085FFF5CFCE010E946601F1CFEB8DEC0F1A
:10039000FD2FF11DE35AFF4FF0829FB7F8940B8FAA
:1003A000EA89FB8980818062CFCFCF93DF93EC0114
:1003B000888D8823B9F0AA89BB89E889F9898C914D
:1003C00085FD03C0808186FD0DC00FB607FCF7CF09
:1003D0008C9185FFF2CF808185FFEDCFCE010E9409
:1003E0006601E9CFDF91CF91089590E0FC01E859D3
:1003F000FF4F2491FC01EC55FF4F3491FC01E05775
:10040000FF4FE491EE23C9F0222339F0233001F1AC
:10041000A8F4213019F1223029F1F0E0EE0FFF1F8E
:10042000E458FF4FA591B4918FB7F894EC91611106
:1004300026C030953E233C938FBF08952730A9F006
:100440002830C9F0243049F7809180008F7D03C0A7
:10045000809180008F7780938000DFCF84B58F7785
:1004600084BDDBCF84B58F7DFBCF8091B0008F77CB
:100470008093B000D2CF8091B0008F7DF9CF3E2B1A
:10048000DACF20918B01260F3327331F213231051C
:10049000ECF42091AF01FC0190E080E0243069F0A1
:1004A00082E00895A0918B012191AC0145595E4FE6
:1004B000A40FB52FB11D2C930196861798F3809148
:1004C0008B01680F60938B0180E0089581E00895AF
:1004D00008958FEF9FEF08958FEF9FEF089580911C
:1004E000640190E09195819591090895CF93DF93F0
:1004F000CB01EA01642F0E944102CE01DF91CF912E
:100500000895CF93DF931F92CDB7DEB7698361E083
:10051000CE0101960E94410281E090E00F90DF91B0
:10052000CF91089590E080E0089520917F0230916E
:100530008002232B39F421E0FC018081882361F0C3
:1005400020E00AC0BC0180917B0290917C020E9455
:100550002E0921E0892BA1F7822F08950F931F9375
:10056000CF93DF93EC0188819981009759F02A811C
:100570003B812617370730F081E0DF91CF911F9143
:100580000F9108958B016F5F7F4F0E94680800975D
:1005900059F0998388831B830A832C813D81232B07
:1005A00059F7FC011082E8CF80E0E7CF1F93CF938B
:1005B000DF9385ED8093BC00809167019091680185
:1005C000A0916901B0916A010796A11DB11D23E0B8
:1005D000B695A795979587952A95D1F72091BC0058
:1005E00024FD03C01092AF0152C0409167015091A9
:1005F00068016091690170916A01452B462B472B78
:1006000069F30097A105B10541F025E32A95F1F7BB
:1006100000000197A109B109E1CF80916601C1E015
:10062000C0936501882399F1D091B8001091BA0068
:100630008091BC008A7B8093BC0060E082E10E94D4
:10064000F50160E083E10E94F5011092AF01C093D3
:10065000B1011092B00161E082E10E94F50161E018
:1006600083E10E94F5018091B9008E7F8093B900EB
:100670008091B9008D7F8093B90088E48093B800A1
:1006800085E48093BC001093BA00D093B800DF914A
:10069000CF911F9108951F920F920FB60F921124C0
:1006A0002F933F934F935F936F937F938F939F937A
:1006B000AF93BF93EF93FF938EED91E00E9466019D
:1006C000FF91EF91BF91AF919F918F917F916F912A
:1006D0005F914F913F912F910F900FBE0F901F9000
:1006E00018951F920F920FB60F9211242F938F938C
:1006F0009F93EF93FF93E091EE01F091EF018081E2
:10070000E091F401F091F50182FD1BC09081809190
:10071000F7018F5F8F732091F801821741F0E0910C
:10072000F701F0E0E252FE4F958F8093F701FF91C1
:10073000EF919F918F912F910F900FBE0F901F906F
:1007400018958081F4CF1F920F920FB60F9211244B
:100750002F933F938F939F93AF93BF938091DA0131
:100760009091DB01A091DC01B091DD013091D901C4
:1007700023E0230F2D3758F50196A11DB11D2093BD
:10078000D9018093DA019093DB01A093DC01B0934F
:10079000DD018091D5019091D601A091D701B09152
:1007A000D8010196A11DB11D8093D5019093D6016A
:1007B000A093D701B093D801BF91AF919F918F9132
:1007C0003F912F910F900FBE0F901F90189526E824
:1007D000230F0296A11DB11DD2CF1F920F920FB60B
:1007E0000F9211242F933F934F935F936F937F93B7
:1007F0008F939F93AF93BF93EF93FF938091B90033
:10080000887F803609F44AC0F0F5883209F4A5C023
:1008100018F5803109F499C0B8F4882309F4F5C0BB
:10082000883009F492C0FF91EF91BF91AF919F91F1
:100830008F917F916F915F914F913F912F910F9089
:100840000FBE0F901F901895883109F486C0803232
:1008500051F78093AE0114C0803409F49BC040F47A
:100860008033B9F38833F9F68093AE0185ECAEC0DE
:10087000803509F483C0883509F494C0883499F62A
:100880000E94D602D0CF883909F48AC038F588375B
:1008900029F050F4883611F0803729F683E08093F0
:1008A000AF011092AD0155C0883809F479C0803984
:1008B00019F0803809F0B7CF8091AD01803208F08F
:1008C0006FC0E091AD0181E08E0F8093AD0180910A
:1008D000BB00F0E0E357FE4F80833BC0803B39F024
:1008E000D0F4803A09F477C0883A09F09CCF84E0CC
:1008F0008093AF0110928C0110928B01F0E0E0E048
:10090000099580918B0181110FC081E080938B014B
:1009100010926B0109C0803C09F4A8CF883C09F40F
:10092000A5CF883B09F07FCFE0918C0181E08E0F4D
:1009300080938C01F0E0E559FE4F80818093BB00ED
:1009400090918C0180918B0129C08091D40180937A
:10095000BB0085EC8093BC0066CF9091D301809161
:10096000D201981758F5E091D30181E08E0F809362
:10097000D301F0E0EE54FE4F8081E9CFE091D30146
:1009800081E08E0F8093D3018091BB00F0E0EE54A4
:10099000FE4F80839091D3018091D2019817C8F2C5
:1009A00085E8D8CFE091D30181E08E0F8093D30109
:1009B0008091BB00F0E0EE54FE4F80838091B10146
:1009C00081115ECF81E08093B00184EA8093BC0006
:1009D0001092AF0128CF85EC8093BC001092AF013C
:1009E0008091AD01803230F4E091AD01F0E0E35749
:1009F000FE4F10826091AD0170E08DE891E0F0E073
:100A0000E0E009951092AD010ECF1092AE0138CF03
:100A10001092E1011092E00188EE93E0A0E0B0E0D6
:100A20008093E2019093E301A093E401B093E50188
:100A30008AE091E09093DF018093DE0185EC90E005
:100A40009093EB018093EA0184EC90E09093ED01A8
:100A50008093EC0180EC90E09093EF018093EE01A5
:100A600081EC90E09093F1018093F00182EC90E0B2
:100A70009093F3018093F20186EC90E09093F5015E
:100A80008093F4011092F7011092F8011092F9018D
:100A90001092FA0110927C0210927B0210927E0258
:100AA00010927D021092800210927F0270E060E04E
:100AB0008BE792E00E94AE0220917B0230917C0293
:100AC000811113C02115310519F0C9010E94DF07FA
:100AD00010927C0210927B021092800210927F0290
:100AE00010927E0210927D02089510928002109260
:100AF0007F0264E271E0C9010C943709CF93DF9360
:100B0000CDB7DEB728970FB6F894DEBF0FBECDBFC6
:100B1000789484B5826084BD84B5816084BD85B5D8
:100B2000826085BD85B5816085BD80916E008160E4
:100B300080936E001092810080918100826080938A
:100B4000810080918100816080938100809180008C
:100B50008160809380008091B10084608093B100B7
:100B60008091B00081608093B00080917A008460B1
:100B700080937A0080917A00826080937A008091DD
:100B80007A00816080937A0080917A0080688093F7
:100B90007A001092C100E091EE01F091EF0182E045
:100BA0008083E091EA01F091EB011082E091EC0189
:100BB000F091ED018FEC80831092F601E091F2014B
:100BC000F091F30186E08083E091F001F091F10172
:100BD000808180618083E091F001F091F10180815A
:100BE00088608083E091F001F091F101808180685C
:100BF0008083E091F001F091F10180818F7D80830D
:100C000088E00E94880089E00E9488008AE00E94B3
:100C1000880080E0E82E80E0F82E8EED91E00E94C2
:100C20004601181619060CF07BC01A8219821C8224
:100C30001B821E821D8270E060E0CE0101960E9440
:100C4000AE0229813A8181112EC02115310519F09A
:100C5000C9010E94DF071A8219821E821D821C822E
:100C60001B820E94F80097FD26C08A30910519F179
:100C70008F8318860D811E810F5F1F4FB801CE0133
:100C800001960E94AE02882361F329813A818D8109
:100C90009E81BE01695F7F4F820F931F0E943709BB
:100CA0001E830D83DECF1E821D8264E271E0C901C6
:100CB0000E943709D6CF80917B0290917C020097E9
:100CC000E9F169817A8161157105B1F140917D0287
:100CD00050917E022D813E814217530768F10E9498
:100CE00037098D819E819093800280937F021E82BE
:100CF0001D8289819A81009711F00E94DF0788E1A7
:100D000091E00E94950261E0811107C08EE191E0BF
:100D10000E949502882349F160E089E00E94F50174
:100D2000E114F10409F479CF0E945201882309F4F7
:100D300074CF0E94000071CF0E94DF0789819A81E1
:100D400090937C0280937B028B819C8190937E02A6
:100D500080937D028D819E819093800280937F029B
:100D60001A8219821C821B82C2CF85E291E00E9406
:100D70009502882319F061E08AE0D0CF8DE291E0FE
:100D80000E94950260E08111F7CF86E391E00E9416
:100D90009502882319F061E088E0C0CF8FE391E0ED
:100DA0000E949502882311F060E0F6CF89E491E07B
:100DB0000E949502882349F061E089E00E94F501D4
:100DC00061E08AE00E94F501E6CF8FE491E00E94A5
:100DD0009502882349F060E089E00E94F50160E017
:100DE0008AE00E94F501E0CF4CE050E066E571E05A
:100DF0008EED91E00E94A80093CF80917B029091AC
:100E00007C02009711F00C94DF0708952F923F9217
:100E10004F925F926F927F928F929F92AF92BF920A
:100E2000CF92DF92EF92FF920F931F93CF93DF93B6
:100E3000CDB7DEB7CA1BDB0B0FB6F894DEBF0FBE13
:100E4000CDBF09942A88398848885F846E847D8460
:100E50008C849B84AA84B984C884DF80EE80FD8062
:100E60000C811B81AA81B981CE0FD11D0FB6F894D8
:100E7000DEBF0FBECDBFED010895EE0FFF1F059041
:100E8000F491E02D09940F931F93CF93DF93823059
:100E9000910510F482E090E0E0918302F0918402E9
:100EA00030E020E0B0E0A0E0309799F42115310562
:100EB00009F44AC0281B390B24303105D8F58A8142
:100EC0009B816115710589F1FB0193838283FE018A
:100ED00011C0408151810281138148175907E0F008
:100EE0004817590799F4109761F012960C931297CE
:100EF00013961C933296CF01DF91CF911F910F91E2
:100F000008950093830210938402F4CF21153105D4
:100F100051F04217530738F0A901DB019A01BD01D6
:100F2000DF01F801C1CFEF01F9CF909384028093E4
:100F30008302CDCFFE01E20FF31F819391932250E4
:100F4000310939832883D7CF2091810230918202E1
:100F5000232B41F42091020130910301309382024E
:100F6000209381022091000130910101211531056A
:100F700041F42DB73EB74091040150910501241B67
:100F8000350BE0918102F0918202E217F307A0F4A1
:100F90002E1B3F0B2817390778F0AC014E5F5F4FCF
:100FA0002417350748F04E0F5F1F5093820240937D
:100FB0008102819391939FCFF0E0E0E09CCFCF93AB
:100FC000DF930097E9F0FC01329713821282A0911F
:100FD0008302B0918402ED0130E020E01097A1F48B
:100FE00020813181820F931F2091810230918202F2
:100FF0002817390709F061C0F0938202E09381025B
:10100000DF91CF910895EA01CE17DF07E8F54A8115
:101010005B819E0141155105B1F7E901FB83EA832C
:1010200049915991C40FD51FEC17FD0761F48081D8
:1010300091810296840F951FE901998388838281AB
:1010400093819B838A83F0E0E0E012968D919C91DE
:1010500013970097B9F52D913C911197CD01029608
:10106000820F931F20918102309182022817390745
:1010700039F6309751F51092840210928302B093A2
:101080008202A0938102BCCFD383C283408151816D
:10109000840F951FC817D90761F44E5F5F4F888191
:1010A0009981480F591F518340838A819B81938383
:1010B00082832115310509F0B0CFF0938402E093CB
:1010C00083029ECFFD01DC01C0CF13821282D7CFF5
:1010D000B0E0A0E0EEE6F8E00C9408078C01009781
:1010E00051F4CB010E9443078C01C801CDB7DEB794
:1010F000E0E10C942407FC01E60FF71F9C0122504D
:101100003109E217F30708F49DC0D901CD91DC91B4
:101110001197C617D70798F0C530D10530F3CE0127
:1011200004978617970708F3C61BD70B2297C1931E
:10113000D1936D937C93CF010E94DF07D6CF5B01E3
:10114000AC1ABD0A4C018C0E9D1EA0918302B09179
:101150008402512C412CF12CE12C109731F5809117
:101160008102909182028815990509F05CC04616AB
:10117000570608F058C08091000190910101009736
:1011800041F48DB79EB74091040150910501841B35
:10119000950BE817F90708F055C0F0938202E09329
:1011A0008102F90171836083A0CF8D919C91119789
:1011B00012966C90129713967C901397A815B90508
:1011C00059F56C0142E0C40ED11CCA14DB0420F1B5
:1011D000AC014A195B09DA011296159780F0628218
:1011E000738251834083D9016D937C93E114F104A0
:1011F00071F0D7011396FC93EE93129776CF229657
:101200008C0F9D1FF90191838083F301EFCFF09341
:101210008402E093830269CF4816590608F42C0132
:101220007D01D3019ACFCB010E9443077C01009737
:1012300049F0AE01B8010E942509C8010E94DF07EC
:10124000870153CF10E000E050CFFB01DC0102C06A
:1012500001900D9241505040D8F70895FB01DC01F8
:101260008D91019080190110D9F3990B0895FB011C
:10127000DC0101900D920020E1F7089510E0CDE52A
:10128000D0E004C0FE010E943D072196CE35D10773
:06129000C9F7F894FFCF3E
:10129600000085028000000000008801A800D5003B
:1012A600D5014601E40038017265646F6E0072650F
:1012B600646F666600677265656E6F6E006772655D
:1012C600656E6F66660079656C6C6F776F6E007918
:1012D600656C6C6F776F666600616C6C6F6E006133
:1012E6006C6C6F666600696E76616C6420696E7000
:0412F600757400000B
:00000001FF
